:03000000020EAA43
:0C0EAA00787FE4F6D8FD758161020EF13E
:1010C5000854F8F9FAFBFCFDFEFF084B8F9FAFBFF4
:0410D500CFDFEFFF7B
:100F8800E5A04407F55E7454255DF8E6555EF5A0C6
:0C0F9800E55D25E02408F8E6FE08E6FF11
:100FA400E4FDEF25E0FFEE33FE0DBD04F5D2A4C24F
:100FB400A3E4FDC2A4EE30E704D2B38002C2B3EFCF
:100FC40025E0FFEE33FED2A40DBD0CE7D2A3D2A4DC
:020FD400C2B3A6
:010FD60022F8
:10108600759850758920E4F587758DFD758BFD750E
:05109600A890D28E229B
:10104C00D292E4FEC292EF30E704D2918002C291B8
:0C105C00EF25E0FFD2920EBE08EAD2920F
:011068002265
:10106900D296E4FEC296EF30E704D2958002C2958B
:0C107900EF25E0FFD2960EBE08EAD296EA
:011085002248
:1010DA007F2012104C7F0C12104C7F1012104C7F84
:0410EA004002104C64
:1010EE007F201210697F0C1210697F101210697F19
:0410FE004002106933
:100FD7007F3812104C2093FDE4FFFED292FDD29190
:100FE700C292EF25E0FFEE33FEA291E433FBEB4222
:090FF70007D2920DBD10E7D29261
:0110000022CD
:101001007F381210692097FDE4FFFED296FDD2953C
:10101100C296EF25E0FFEE33FEA295E433FBEB42EF
:0910210007D2960DBD10E7D2962E
:01102A0022A3
:10109B00D292D291D290E4FFC292D291D2920FBF50
:0410AB0038F6D292AF
:0110AF00221E
:1010B000D296D295D294E4FFC296D295D2960FBF23
:0410C00038F6D29696
:0110C4002209
:100E13007C277D10120ABD8F24AE31AF327C277D33
:100E230010120ABD8C318D32AE31AF327C037DE8B6
:100E3300120ABD8F25AE31AF327C037DE8120ABDA5
:100E43008C318D32AE31AF327C007D64120ABD8F9E
:100E530026AE31AF327C007D64120ABD8C318D32F7
:100E6300AE31AF327C007D0A120ABD8F27AE31AF9F
:100E7300327C007D0A120ABD8D28E5242430FF123E
:100E83000EA2E5252430FF120EA2E5262430FF1220
:0F0E93000EA2E5272430FF120EA2E5282430FF1F
:080EA2008F993099FDC29922DD
:0A102B00C2A6C2A5D2B57F2A7E68D6
:10103500E4FDFCC3ED9FEC9E500CE4F560F5610DFD
:06104500BD00010C80ED6E
:01104B002282
:03002300020F3693
:100F3600C0E0C0D075D000C0008599537439C39500
:100F460053400CE5539430400674D02553F553E5D1
:100F560053B42003755300309815C298E55CC394CA
:100F6600184003755C007433255CF8A653055C7560
:100F76003000752F00752E00752D00D000D0D0D012
:020F8600E03257
:100B2000E4F55D7433255DF8E4F6055DE55DB41824
:100B3000F2E4F55CF55DE55D25E02414F8E4F608E3
:100B4000F6055DE55DB408EEE4F55D7424255DF819
:100B5000E4F6055DE55DB405F2121086C2B5C2A5E6
:100B6000C2A6C2A7D283D287D2B2E4F530F52FF560
:100B70002EF52DE4F52CF52BF52AF529F55DE55D2F
:100B800075F003A42434F8E675F00AA4FDACF0E592
:100B90005D75F003A42433F8E675F064A42DFFE539
:100BA000F03CFEE55D75F003A42435F8E67C002FEB
:100BB000FFEC3EFEE55D25E02414F8A60608A60736
:100BC000055DE55DB408B7E51564DE45147010C237
:100BD000B2D283D287F530F52F752E80752D3FE583
:100BE00015B42B16E514B40211C283C287D2B2E445
:100BF000F530F52F752E80752D3FE515646F451482
:100C00007010D2B2D283D287F530F52F752E807551
:100C10002D3F755D02E55D25E02414F8E6FC08E64D
:100C2000FDE4120A038F2C8E2B8D2A8C297F8F7E58
:100C3000C27D237C42AB2CAA2BA92AA8291208F832
:100C4000E4FBFAF9783F1208078F2C8E2B8D2A8C43
:100C500029120A3CE55D25E02404F8A60608A6074B
:100C6000055DE55DB404AE755D04E55D25E0241425
:100C7000F8E6FC08E6FDE4120A038F2C8E2B8D2A81
:100C80008C297F0C7E027D037C41AB2CAA2BA92AE8
:100C9000A8291208F8E4FBFAF9783F1208078F2C0C
:100CA0008E2B8D2A8C29120A3CE55D25E02404F860
:100CB000A60608A607055DE55DB406AE755D06E50A
:100CC0005D25E02414F8E6FC08E6FDE4120A038F33
:100CD0002C8E2B8D2A8C297F0C7E027D837C40AB51
:100CE0002CAA2BA92AA8291208F8E4FBFAF9783FC4
:100CF0001208078F2C8E2B8D2A8C29120A3CE55D59
:100D000025E02404F8A60608A607055DE55DB408FD
:100D1000AEE4F55D120F88C2A712102BC2B5055DB7
:100D2000E55DC3940140ED755D01120F88C2A7C255
:100D3000A6D2A512102FC2B5055DE55DC394024091
:100D4000E9755D02120F88C2A7D2A612102DC2B596
:100D5000055DE55DC3940340EB755D03120F88C22A
:100D6000A7D2A6D2A512102FC2B5055DE55DC3942A
:100D70000440E9755D04120F88D2A712102BC2B58A
:100D8000055DE55DC3940540ED755D05120F88D2E4
:100D9000A7C2A6D2A512102FC2B5055DE55DC3940A
:100DA0000640E9AF30AE2FAD2EAC2DEC4D4E4F705E
:100DB00003020B73E4F55DE5804407F55F74542589
:100DC0005DF8E6555FF58012109B1210DA120FD70E
:100DD0008E318F32C290120E13055DE55DC394060D
:100DE00040D5E4F55DE55DC3940350B7E5804470FC
:100DF000F55F744B255DF8E6555FF5801210B01273
:100E000010EE1210018E318F32C294120E13055D56
:030E1000020DE5EB
:10080000020AA8E86480F8E933E83360110460F074
:10081000ED33EC337009E8FCE9FDEAFEEBFF22045E
:1008200060DED3EB9FEA9EE99DE8C2E78CF0C2F759
:1008300095F0400CE8CCF8E9CDF9EACEFAEBCFFB25
:10084000120A7385D0F05804700320D5B3E8047001
:10085000075002B2D5020AB292D5EC0460F7E4CC9C
:10086000C0E0C398F8603B94186008400DD0E0FBEE
:10087000020A8AE4FBFAC9FC8028E830E406E4C9ED
:10088000FBE4CAFCE830E305E4C9CACBFCE8540742
:100890006010F8C3E913F9EA13FAEB13FBEC13FC4D
:1008A000D8F130F52FC3E49CFCEF9BFFEE9AFEEDF0
:1008B00099FDD0E0FBEF4E4D4C701222DB03020A93
:1008C000AFEC2CFCEF33FFEE33FEED33FDED30E704
:1008D000EB020A8AEF2BFFEE3AFEED39FDD0E0FB8A
:1008E00050130BBB0003020AB2ED13FDEE13FEEF33
:0808F00013FFEC13FC020A8A5D
:1008F800EC4D6011E8497017ED33EC3304600DE4FA
:10090800FCFFFEFD22E933E8330470F8020AA8125E
:100918000A7358046009E4CC24815006285009025F
:100928000AB2284003020AAFC0E0EB4A7044B9801B
:1009380006D0E0FB020A9EEF4E701CBD8008EBFF5C
:10094800EAFEE9FD80EBE98DF0A4FEE5F00209E19D
:10095800E9CDF9EAFEEBFFEF89F0A4FCE5F0CE89DA
:10096800F0A42EFFE435F0CD89F0A42DFEE435F097
:100978008067EF4E7005BD80D780C3EF8BF0A4ACC5
:10098800F0EE8BF0A42CFCE435F0F8EF8AF0A42C00
:10099800E5F038FCE433CB8DF0A42CFCE5F03BF813
:1009A800EE8AF0A42CFCE5F038F8E433CF89F0A403
:1009B8002CFCE5F038CF3400CE89F0A42FFFE5F009
:1009C8003EFEE433C98DF0A42EFEE5F039CD8AF061
:1009D800A42FFFE5F03EFEE43DFD33D0E0FB5007D9
:1009E8000BBB000F020AB2EC2CFCEF33FFEE33FE18
:0609F800ED33FD020A8A46
:1009FE0075F020800E75F010800575F0087D007E74
:100A0E00007F003392D530D503120B12EC33401019
:100A1E00EF33FFEE33FEED33FDEC33FCD5F0ED227C
:0E0A2E00E5F0247EA2D513CC92E7CDCEFF22B8
:100A3C00EDD2E7CD33EC3392D524814006E4FFFEB2
:100A4C00FDFC22FCE4CFCECDCC24E0501174FF8011
:100A5C00EDC3CC13CCCD13CDCE13CECF13CF0470AE
:070A6C00F030D5DE020B1291
:100A7300E9D2E7C933E833F892D5EDD2E7CD33ECC9
:070A830033FC5002B2D52242
:100A8A00EC30E7100FBF000C0EBE00080DBD0004CD
:100A9A000BEB6014A2D5EB13FCED92E7FD2274FF79
:100AAA00FCFDFEFF22E480F8A2D574FF13FC7D80D2
:030ABA00E480EFE6
:100EB600020B20E493A3F8E493A34003F68001F227
:100EC60008DFF48029E493A3F85407240CC8C3333D
:100ED600C4540F4420C8834004F456800146F6DF0C
:100EE600E4800B01020408102040809010C5E47EC7
:100EF600019360BCA3FF543F30E509541FFEE49301
:100F0600A360010ECF54C025E060A840B8E493A3C7
:100F1600FAE493A3F8E493A3C8C582C8CAC583CAF2
:100F2600F0A3C8C582C8CAC583CADFE9DEE780BEAA
:0110D9000016
:100ABD00BC000BBE0029EF8DF084FFADF022E4CC1D
:100ACD00F875F008EF2FFFEE33FEEC33FCEE9DECE6
:100ADD00984005FCEE9DFE0FD5F0E9E4CEFD22ED2C
:100AED00F8F5F0EE8420D21CFEADF075F008EF2F76
:100AFD00FFED33FD4007985006D5F0F222C398FD67
:050B0D000FD5F0EA2203
:0E0B1200C3E49FFFE49EFEE49DFDE49CFC22F4
:00000001FF
